:040000008031132810
:100008007E1480318B1E09280A2811280B1D0D2803
:100018000E2811288331B12380317E1009008031E8
:100028001528203084000030850025308331D823FE
:1000380080317E1020008331272B2000CB01CC019A
:1000480020004B08203E860087012E300106031D44
:100058002E282F285C284B08FD3ECD00FF304C3D54
:10006800CE004D282000CE1F3A283B2840283030AB
:1000780083315423803148284D08203E860087016B
:10008800010883315423803101302000CD0700302E
:10009800CE3D4E08803ACA004C08803A4A02031DF9
:1000A80057284B084D02031C5A285B2836286D2810
:1000B8000130CB070030CC3D4C08803ACA00803074
:1000C8004A02031D69280A304B02031C6C286D285C
:1000D800242820004C08803ACA0080304A02031DB8
:1000E80077280A304B02031C7A287B289A2820009C
:1000F800CD01CE0120004D08203E86008701010871
:1001080083315423803101302000CD070030CE3DAB
:100118004E08803ACA0080304A02031D95280A30EA
:100128004D02031C982899287E28C82820004B08CF
:10013800013ECD0000304C3DCE004E08803ACA004A
:1001480080304A02031DAA280A304D02031CAD283C
:10015800AE28AF28C82820004D08203E8600870119
:100168002E3001060319B928BA28C2284D08203EA6
:100178008600870101088331542380310130200033
:10018800CD070030CE3DA1280800FD00FC017D030D
:10019800031DCF28D028D32822008E10ED28023046
:1001A8007D06031DD828D928DC2822000E11ED2849
:1001B80003307D06031DE128E228E52822008E1180
:1001C800ED2804307D06031DEA28EB28ED282200DF
:1001D8000C1220000E18F128F228F528FC01FC0A60
:1001E80019298C19F828F928FE280230F600760813
:1001F800FC0019290C190129022907290330F600E6
:100208007608FC0019298C180A290B2910290430B2
:10021800F6007608FC0019290C1813291429192945
:100228000530F6007608FC0019297D03031D1D29F9
:100238001E29212922008E143B2902307D06031D28
:10024800262927292A2922000E153B2903307D0655
:10025800031D2F293029332922008E153B2904300C
:100268007D06031D382939293B2922000C167D08F3
:10027800F600F7017608F0007708F1000630F20082
:100288000030F300833108238031A130F800823038
:10029800F90070087807FA007108793DFB007C08BE
:1002A8007A0784007B0803187B0A85000008080089
:1002B8002000D100C4293608031D632964296E294A
:1002C800B601B60AFB30C9008330CA008231E62283
:1002D80081317629B601BF30C9008230CA00823127
:1002E800E6228131823126228131E6290530C90092
:1002F8008430CA008231E622813176293508031D0F
:10030800862987299129B501B50A0030C9008430AA
:10031800CA008231E62281317629B501F630C9005A
:100328008330CA008231E622813176290D30C90036
:100338008430CA008231E622813176290930C90029
:100348008430CA008231E6228131762983319023B4
:100358008131E6298231C4228131762930308331D6
:1003680069238131303083316923813130308331E1
:1003780069238131E6295108833169238131E629CE
:100388005108CF00D0015008003A0319CC29BF29E1
:100398004F082A3A03198229013A03199A29063A79
:1003A8000319A229023A03197A296D3A0319AA29CD
:1003B800073A0319AE29033A03195F291C3A0319AE
:1003C800B229BF2908002000C601C60A46088031A4
:1003D800C92081312000C5004508C7004708031916
:1003E800F629F729F829032A0130C5004508C60768
:1003F8004608803A7B3E031C022A032AEA2947085A
:100408000319072A082A222A47083806031D0D2A35
:100418000E2A1C2A0130C5004508B2073203031D05
:10042800162A172A252A4708C5004508B700252A8D
:10043800B2014708C5004508B800252AB201B8012D
:10044800252A08002000B401B301C901CA013030CF
:100458002000C8004908203E86008701480881001E
:100468003030C80049083B3E8600870148088100B3
:100478000130C9070030CA3D4A08803AC8008030B8
:100488004802031D492A0A304902031C4C2A4D2AF6
:100498002B2A2000C401B401B301080022008C01FA
:1004A80010308E00073021008C0021308E00230090
:1004B8008E018C011F3024008C000F308E0021002B
:1004C8009513103025008C000E308E003730260032
:1004D8008C003F308E003F3027008C003F308E006C
:1004E80015303C00A40014303D00A400080008307A
:1004F80023009F0090309D0024309E0082309B0096
:1005080006309C0000302000C8000030C90083314C
:10051800EA23823100302000C8000030C90083314E
:10052800E423823100302000C8000030C900833144
:10053800F02382312000B90108000034003400346F
:100548000034003400340034303431343434373437
:100558004634003430343234353438342F340034AF
:100568005A343334363439342A3400342E3445344A
:1005780042342B342D344C344B3430343B34003437
:10058800200034080319C92ACA2AE52A8031212003
:10059800823115302000C9008430CA008231E62239
:1005A80082313B302000C9000030CA008231E62287
:1005B8008231C2302000C9008230CA008231E6226E
:1005C8008231080020004A08CD004908CC002200EA
:1005D8008C16FB2A4C0884004D08850000088331DE
:1005E800CE23823101302000CC070030CD3D2000E1
:1005F8004C0884004D0885001200031D042B052BB0
:10060800EE2A22008C120800F401F501701C0D2B53
:100618000E2B122B7208F4077308F53D0130F235E2
:10062800F30D890B132B0130F136F00C890B182BC5
:1006380070087104031D212B222B0A2B7508F10069
:100648007408F00008008331A12383318B170B173E
:1006580083317E238331200037080319342B352B4F
:100668002F2B370881315C2183312000B7012F2BD4
:100678008031132821001508C03917389500063035
:10068800200095000630CA004A08BA000B118B16E4
:100698001830C8000430C9008331DE2383310800D4
:1006A8002000C9000930330603195B2B5C2B682B2B
:1006B8004908C80033083B3E860087014808810086
:1006C8000130C8004808B30708002000C9000A30F4
:1006D80034060319702B712B7D2B4908C800340888
:1006E800203E86008701480881000130C80048087C
:1006F800B4070800E7302000C8000130C900833182
:10070800DE23833122008E140E158E150C168C12E2
:100718008231262283310800200034080319952BE2
:10072800962BA02B3030C8000130B4023408203E8C
:1007380086008701480881000800823152228331EF
:100748008331C123833184311124833183313E23A2
:10075800833182317B22833108000B1120003A0853
:100768009500300831040319BA2BBB2BC02B310874
:100778008A0030080A00833108007030210099008F
:100788009A0198012200960121001A1FCC2BCD2B2B
:10079800C82B08002000C800111ED32BD42BD02B47
:1007A800480823009A000800640080010131890B81
:1007B800D92B003420004908B1004808B0000800CF
:1007C80020004908AD004808AC000800200049088E
:1007D800AF004808AE00080020004908AB004808F0
:1007E800AA0008004634533430343B3400344C34C7
:1007F8004B3431343B3400344634533431343B3495
:10080800003456344D343B34003444344E343B3495
:100818000034553450343B340034163021009700EE
:0A0828000800463441340034080093
:020000040001F9
:08000000FF3FFF3FFF3FFF3F00
:04000E00A43FFF1FED
:00000001FF
